:1000000014C02EC02DC02CC02BC02AC061C028C077
:1000100027C026C025C024C023C022C021C020C0C4
:100020001FC01EC01DC01DC030C011241FBECFE5A3
:10003000D1E0DEBFCDBF10E0A0E6B0E0E6E8F1E041
:1000400002C005900D92A236B107D9F720E0A2E6D2
:10005000B0E001C01D92A436B207E1F790D091C084
:10006000CFCF1F920F920FB60F9211248F939F93B1
:1000700081E090E090936300809362009F918F9164
:100080000F900FBE0F901F9018951F920F920FB6F2
:100090000F9211242F933F934F935F936F937F930E
:1000A0008F939F93AF93BF93EF93FF93DADFFF910B
:1000B000EF91BF91AF919F918F917F916F915F91E0
:1000C0004F913F912F910F900FBE0F901F90189559
:1000D0001F920F920FB60F9211242F938F939F931D
:1000E00080916000909161008130910589F00297C4
:1000F00039F5C098C198C2982FE78DE89BE521504B
:1001000080409040E1F700C0000081E090E014C022
:100110008091620090916300019791F488B38760A9
:1001200088BB2FE78DE89BE5215080409040E1F7A8
:1001300000C0000082E090E0909361008093600036
:100140009F918F912F910F900FBE0F901F90189538
:1001500087B3876087BB8BB780618BBF91E095B910
:100160008BB788608BBF94B910BE13BE83B7856010
:1001700083BF789412BE89B7826089BF0895E8DF93
:06018000FFCFF894FFCF51
:02018600010076
:00000001FF
