:1000000014C023C022C021C020C01FC033C01DC0E7
:100010001CC01BC01AC019C018C017C016C015C01C
:1000200014C013C012C011C011C011241FBECFE5EF
:10003000D1E0DEBFCDBF20E0A0E6B0E001C01D9260
:10004000A236B207E1F740D041C0DACF1F920F923B
:100050000FB60F9211248F939F9381E090E09093BD
:100060006100809360009F918F910F900FBE0F9061
:100070001F9018951F920F920FB60F9211248F9315
:100080009F938091600090916100019719F488B36B
:10009000876088BB9F918F910F900FBE0F901F902C
:1000A000189587B3876087BB8BB780618BBF81E072
:1000B00085B910BE13BE83B7856083BF789412BE26
:1000C00089B7826089BF0895ECDFFFCFF894FFCF36
:00000001FF
