:1000000014C023C022C021C020C01FC0A9C01DC071
:100010001CC01BC01AC019C018C017C016C015C01C
:1000200014C013C012C02DC03AC011241FBECFE5AA
:10003000D1E0DEBFCDBF20E0A0E6B0E001C01D9260
:10004000A436B207E1F7ADD1AEC1DACFAC01440FAF
:10005000551F20E030E0241735077CF498B39262F6
:1000600098BB6FEF89E698E1615080409040E1F7DE
:1000700000C000002E5F3F4FEECF88B38D7D88BB60
:1000800008951F920F920FB60F92112410926100E3
:10009000109260000F900FBE0F901F9018951F9246
:1000A0000F920FB60F9211242F933F934F935F93AC
:1000B0006F937F938F939F93AF93BF93EF93FF9330
:1000C000E0DFFF91EF91BF91AF919F918F917F9171
:1000D0006F915F914F913F912F910F900FBE0F90B5
:1000E0001F901895019729F0660F771F80E090E028
:1000F00002C0CB01ABCF8617970764F4C39A2FEFEA
:1001000039E648E1215030404040E1F700C00000AE
:100110000296F1CFC39808956130710539F40197C3
:1001200019F488B3816106C0C29A0895019721F439
:1001300088B3826288BB0895C39A089561307105BF
:1001400039F4019719F488B38E7E06C0C2980895D9
:10015000019721F488B3807288BB0895C3980895ED
:100160001F920F920FB60F9211242F933F934F932C
:100170005F936F937F938F939F93AF93BF93CF932F
:10018000DF93EF93FF938091620090916300813041
:10019000910509F449C08230910509F491C0892B79
:1001A00009F0D1C088B3896588BB88B3897D88BBD5
:1001B000C0916000D0916100C130D10509F0C3C089
:1001C00010926100109260002FEF89E698E12150B3
:1001D00080409040E1F700C0000061E070E080E006
:1001E00090E080DF2FEF89E698E121508040904039
:1001F000E1F700C0000061E070E080E090E072DFB5
:100200002FEF89E698E1215080409040E1F700C04F
:10021000000061E070E080E090E064DFC698D09379
:100220006300C09362008FC088B3816188BB64E1C2
:1002300070E080E090E056DF2FEF89E698E12150F2
:1002400080409040E1F700C0000061E070E080E095
:1002500090E048DF2FEF89E698E121508040904000
:10026000E1F700C0000061E070E080E090E03ADF7C
:100270002FEF89E698E1215080409040E1F700C0DF
:10028000000061E070E080E090E02CDFC29A2FEF88
:1002900089E698E1215080409040E1F700C00000DD
:1002A0002FEF89E698E1215080409040E1F700C0AF
:1002B000000082E090E0909363008093620043C06E
:1002C00088B38E7E88BB84E190E0C0DE2FEF89E6A4
:1002D00098E1215080409040E1F700C0000081E0AB
:1002E00090E0B4DE2FEF89E698E121508040904005
:1002F000E1F700C0000081E090E0A8DE2FEF89E682
:1003000098E1215080409040E1F700C0000081E07A
:1003100090E09CDE88B3816188BB2FEF89E698E18D
:10032000215080409040E1F700C000002FEF89E6A7
:1003300098E1215080409040E1F700C00000109209
:100340006300109262001092610010926000FF91B1
:10035000EF91DF91CF91BF91AF919F918F917F915D
:100360006F915F914F913F912F910F900FBE0F9022
:100370001F90189587B38F6787BB8BB780618BBF42
:1003800091E095B98BB788608BBF94B910BE13BE4E
:1003900083B7856083BF789412BE89B7826089BFB6
:0A03A0000895E8DFFFCFF894FFCFC7
:00000001FF
