:1000000014C02EC02DC02CC02BC02AC08EC028C04A
:1000100027C026C025C024C023C022C021C020C0C4
:100020001FC01EC01DC01DC030C011241FBECFE5A3
:10003000D1E0DEBFCDBF10E0A0E6B0E0E0E7F2E047
:1000400002C005900D92A236B107D9F720E0A2E6D2
:10005000B0E001C01D92A436B207E1F705D106C198
:10006000CFCF1F920F920FB60F9211248F939F93B1
:1000700081E090E090936300809362009F918F9164
:100080000F900FBE0F901F9018951F920F920FB6F2
:100090000F9211242F933F934F935F936F937F930E
:1000A0008F939F93AF93BF93EF93FF93DADFFF910B
:1000B000EF91BF91AF919F918F917F916F915F91E0
:1000C0004F913F912F910F900FBE0F901F90189559
:1000D000019719F080E090E017C080E090E086176B
:1000E000970774F428B3226228BB2FE736E948E962
:1000F000215030404040E1F700C000000296EFCFB1
:1001000088B38D7D88BB08958617970764F4C39ADA
:100110002FE736E948E9215030404040E1F700C080
:1001200000000296F1CFC39808951F920F920FB668
:100130000F9211242F938F939F9380916000909141
:1001400061008130910551F0029709F06EC081E0A5
:1001500090E0909361008093600067C0809162009E
:1001600090916300019709F060C088B3826288BBF8
:100170002FEF89E698E1215080409040E1F700C0E0
:10018000000088B38D7D88BB2FEF89E698E1215070
:1001900080409040E1F700C0000088B3826288BBD5
:1001A0002FEF89E698E1215080409040E1F700C0B0
:1001B000000088B38D7D88BB2FEF89E698E1215040
:1001C00080409040E1F700C0000088B3826288BBA5
:1001D0002FEF89E698E1215080409040E1F700C080
:1001E000000088B38D7D88BB2FEF89E698E1215010
:1001F00080409040E1F700C0000088B3826288BB75
:100200002FEF89E698E1215080409040E1F700C04F
:10021000000088B38D7D88BB2FEF89E698E12150DF
:1002200080409040E1F700C000009F918F912F9196
:100230000F900FBE0F901F90189587B38F6387BBE9
:100240008BB780618BBF91E095B98BB788608BBF0E
:1002500094B910BE13BE83B7856083BF789412BE75
:1002600089B7826089BF0895E8DFFFCFF894FFCF98
:0202700001008B
:00000001FF
