:1000000014C02EC02DC02CC02BC02AC03EC028C09A
:1000100027C026C025C024C023C022C021C020C0C4
:100020001FC01EC01DC01CC01CC011241FBECFE5B8
:10003000D1E0DEBFCDBF10E0A0E6B0E0E8E3F1E044
:1000400002C005900D92A236B107D9F720E0A2E6D2
:10005000B0E001C01D92A436B207E1F769D06AC0D2
:10006000CFCF1F920F920FB60F9211248F939F93B1
:1000700081E090E090936300809362009F918F9164
:100080000F900FBE0F901F9018951F920F920FB6F2
:100090000F9211242F938F939F93809160009091E2
:1000A00061008130910589F0029739F5C098C198B7
:1000B000C2982FE78DE89BE5215080409040E1F702
:1000C00000C0000081E090E014C080916200909137
:1000D0006300019791F488B3876088BB2FE78DE8B0
:1000E0009BE5215080409040E1F700C0000082E095
:1000F00090E090936100809360009F918F912F9189
:100100000F900FBE0F901F90189587B3876087BB25
:100110008BB780618BBF81E085B910BE13BE83B7FA
:10012000856083BF789412BE89B7826089BF0895C5
:08013000ECDFFFCFF894FFCFD4
:020138000100C4
:00000001FF
